{
  "contractName": "Deal",
  "abi": [
    {
      "inputs": [],
      "stateMutability": "nonpayable",
      "type": "constructor"
    },
    {
      "anonymous": false,
      "inputs": [
        {
          "indexed": false,
          "internalType": "address",
          "name": "_from",
          "type": "address"
        },
        {
          "indexed": false,
          "internalType": "address",
          "name": "_to",
          "type": "address"
        },
        {
          "indexed": false,
          "internalType": "uint256",
          "name": "amount",
          "type": "uint256"
        },
        {
          "indexed": false,
          "internalType": "uint256",
          "name": "timeLogged",
          "type": "uint256"
        }
      ],
      "name": "makePayment",
      "type": "event"
    },
    {
      "inputs": [
        {
          "internalType": "uint256",
          "name": "",
          "type": "uint256"
        }
      ],
      "name": "buyerList",
      "outputs": [
        {
          "internalType": "address",
          "name": "payer",
          "type": "address"
        },
        {
          "internalType": "uint256",
          "name": "amount",
          "type": "uint256"
        },
        {
          "internalType": "bool",
          "name": "exists",
          "type": "bool"
        }
      ],
      "stateMutability": "view",
      "type": "function"
    },
    {
      "inputs": [],
      "name": "buyerListCounter",
      "outputs": [
        {
          "internalType": "uint256",
          "name": "",
          "type": "uint256"
        }
      ],
      "stateMutability": "view",
      "type": "function"
    },
    {
      "inputs": [],
      "name": "msgVal",
      "outputs": [
        {
          "internalType": "uint256",
          "name": "",
          "type": "uint256"
        }
      ],
      "stateMutability": "view",
      "type": "function"
    },
    {
      "inputs": [],
      "name": "owner",
      "outputs": [
        {
          "internalType": "address payable",
          "name": "",
          "type": "address"
        }
      ],
      "stateMutability": "view",
      "type": "function"
    },
    {
      "inputs": [
        {
          "internalType": "address",
          "name": "",
          "type": "address"
        }
      ],
      "name": "paymentHistory",
      "outputs": [
        {
          "internalType": "uint256",
          "name": "",
          "type": "uint256"
        }
      ],
      "stateMutability": "view",
      "type": "function"
    },
    {
      "inputs": [
        {
          "internalType": "uint256",
          "name": "price",
          "type": "uint256"
        }
      ],
      "name": "setPriceToPay",
      "outputs": [],
      "stateMutability": "nonpayable",
      "type": "function"
    },
    {
      "inputs": [
        {
          "internalType": "address",
          "name": "_from",
          "type": "address"
        },
        {
          "internalType": "uint256",
          "name": "_msgVal",
          "type": "uint256"
        }
      ],
      "name": "enterBuyer",
      "outputs": [],
      "stateMutability": "payable",
      "type": "function"
    },
    {
      "inputs": [],
      "name": "transferAmount",
      "outputs": [],
      "stateMutability": "payable",
      "type": "function"
    },
    {
      "inputs": [],
      "name": "getcontractBalance",
      "outputs": [
        {
          "internalType": "uint256",
          "name": "",
          "type": "uint256"
        }
      ],
      "stateMutability": "view",
      "type": "function"
    },
    {
      "inputs": [],
      "name": "getPriceAmount",
      "outputs": [
        {
          "internalType": "uint256",
          "name": "",
          "type": "uint256"
        }
      ],
      "stateMutability": "view",
      "type": "function"
    }
  ],
  "bytecode": "0x6080604052735c46c0c826f31de436c28e9c706c84bb24329b62600260006101000a81548173ffffffffffffffffffffffffffffffffffffffff021916908373ffffffffffffffffffffffffffffffffffffffff16021790555034801561006557600080fd5b5060006003819055506109d48061007d6000396000f3fe6080604052600436106100915760003560e01c8063504d27fd11610059578063504d27fd14610182578063624b4ef01461018c5780638da5cb5b146101b75780638e4d5053146101e2578063c13141081461020d57610091565b806306132a94146100965780630ea22918146100d55780632fbee78614610100578063351bec6b1461011c5780633be4f30f14610145575b600080fd5b3480156100a257600080fd5b506100bd60048036038101906100b89190610698565b610238565b6040516100cc93929190610730565b60405180910390f35b3480156100e157600080fd5b506100ea61028f565b6040516100f79190610767565b60405180910390f35b61011a600480360381019061011591906107ae565b610295565b005b34801561012857600080fd5b50610143600480360381019061013e9190610698565b610348565b005b34801561015157600080fd5b5061016c600480360381019061016791906107ee565b6103ac565b6040516101799190610767565b60405180910390f35b61018a6103c4565b005b34801561019857600080fd5b506101a1610591565b6040516101ae9190610767565b60405180910390f35b3480156101c357600080fd5b506101cc61059b565b6040516101d9919061083c565b60405180910390f35b3480156101ee57600080fd5b506101f76105c1565b6040516102049190610767565b60405180910390f35b34801561021957600080fd5b506102226105c9565b60405161022f9190610767565b60405180910390f35b60066020528060005260406000206000915090508060000160009054906101000a900473ffffffffffffffffffffffffffffffffffffffff16908060010154908060020160009054906101000a900460ff16905083565b60055481565b600260009054906101000a900473ffffffffffffffffffffffffffffffffffffffff1673ffffffffffffffffffffffffffffffffffffffff163373ffffffffffffffffffffffffffffffffffffffff16036102ef57600080fd5b80600581905550600154811161030457600080fd5b816000806101000a81548173ffffffffffffffffffffffffffffffffffffffff021916908373ffffffffffffffffffffffffffffffffffffffff1602179055505050565b600260009054906101000a900473ffffffffffffffffffffffffffffffffffffffff1673ffffffffffffffffffffffffffffffffffffffff163373ffffffffffffffffffffffffffffffffffffffff16146103a257600080fd5b8060018190555050565b60076020528060005260406000206000915090505481565b600260009054906101000a900473ffffffffffffffffffffffffffffffffffffffff1673ffffffffffffffffffffffffffffffffffffffff163373ffffffffffffffffffffffffffffffffffffffff160361041e57600080fd5b60015460055411610464576040517f08c379a000000000000000000000000000000000000000000000000000000000815260040161045b906108da565b60405180910390fd5b600260009054906101000a900473ffffffffffffffffffffffffffffffffffffffff1673ffffffffffffffffffffffffffffffffffffffff166108fc6001549081150290604051600060405180830381858888f193505050501580156104ce573d6000803e3d6000fd5b503373ffffffffffffffffffffffffffffffffffffffff166108fc6005549081150290604051600060405180830381858888f19350505050158015610517573d6000803e3d6000fd5b506105206105cf565b6105286105d8565b600154600760008060009054906101000a900473ffffffffffffffffffffffffffffffffffffffff1673ffffffffffffffffffffffffffffffffffffffff1673ffffffffffffffffffffffffffffffffffffffff16815260200190815260200160002081905550565b6000600154905090565b600260009054906101000a900473ffffffffffffffffffffffffffffffffffffffff1681565b600047905090565b60035481565b42600481905550565b7fc685f07304a392ebc29dd30b8f0b569993c72f9a7a36e64e992a30f1bbfe68e060008054906101000a900473ffffffffffffffffffffffffffffffffffffffff16600260009054906101000a900473ffffffffffffffffffffffffffffffffffffffff166001546004546040516106539493929190610959565b60405180910390a1565b600080fd5b6000819050919050565b61067581610662565b811461068057600080fd5b50565b6000813590506106928161066c565b92915050565b6000602082840312156106ae576106ad61065d565b5b60006106bc84828501610683565b91505092915050565b600073ffffffffffffffffffffffffffffffffffffffff82169050919050565b60006106f0826106c5565b9050919050565b610700816106e5565b82525050565b61070f81610662565b82525050565b60008115159050919050565b61072a81610715565b82525050565b600060608201905061074560008301866106f7565b6107526020830185610706565b61075f6040830184610721565b949350505050565b600060208201905061077c6000830184610706565b92915050565b61078b816106e5565b811461079657600080fd5b50565b6000813590506107a881610782565b92915050565b600080604083850312156107c5576107c461065d565b5b60006107d385828601610799565b92505060206107e485828601610683565b9150509250929050565b6000602082840312156108045761080361065d565b5b600061081284828501610799565b91505092915050565b6000610826826106c5565b9050919050565b6108368161081b565b82525050565b6000602082019050610851600083018461082d565b92915050565b600082825260208201905092915050565b7f6572726f723a206d69736d61746368696e6720616d6f756e7420656e7465726560008201527f6421000000000000000000000000000000000000000000000000000000000000602082015250565b60006108c4602283610857565b91506108cf82610868565b604082019050919050565b600060208201905081810360008301526108f3816108b7565b9050919050565b6000819050919050565b600061091f61091a610915846106c5565b6108fa565b6106c5565b9050919050565b600061093182610904565b9050919050565b600061094382610926565b9050919050565b61095381610938565b82525050565b600060808201905061096e60008301876106f7565b61097b602083018661094a565b6109886040830185610706565b6109956060830184610706565b9594505050505056fea2646970667358221220069bc2e606ed5447c55e02b787fd8af12cc303246755978ff54b709626ea01b764736f6c634300080d0033",
  "immutableReferences": {},
  "source": "// SPDX-License-Identifier: MIT\n\npragma solidity >=0.7.0 <0.9.0;\n\ncontract Deal\n{\n    address payer;\n    uint256 amount ;\n    address payable public owner = payable(0x5c46C0c826F31dE436c28e9C706c84Bb24329b62); \n    uint public buyerListCounter;  \n    uint lastUpdated;\n    uint public msgVal;\n\n    struct buyerDetails\n    {\n        address  payer;\n        uint amount;\n        // string goods;  \n        bool exists;       \n    }\n\n    mapping( uint => buyerDetails) public buyerList;\n    mapping( address => uint) public paymentHistory ;\n\n    modifier onlyOwner()\n    {\n        require(msg.sender == owner);\n        _;\n    }\n\n    modifier notOwner()\n    {\n        require(msg.sender != owner);\n        _;\n       \n    }      \n    event makePayment(address _from , address _to, uint amount, uint timeLogged); \n\n    constructor()\n    {\n            \n        buyerListCounter=0;   \n    }\n\n    function setPriceToPay(uint price) public onlyOwner\n    {\n        amount = price;\n    }\n\n    function enterBuyer(address _from, uint _msgVal) payable external notOwner\n    {\n        msgVal=_msgVal;\n        require(_msgVal>amount);\n        payer = _from;\n        // logBuyer(_from, amount, _goods);\n    }\n\n    // function logBuyer(address _from, uint _amount, string memory _goods) internal\n    // {\n    //     require(buyerList[buyerListCounter].exists == false, \"error : trying to over-write existing payment\");\n    //     buyerList[buyerListCounter].payer = _from;\n    //     buyerList[buyerListCounter].amount = _amount;\n    //     buyerList[buyerListCounter].goods = _goods;\n    //     buyerList[buyerListCounter].exists = true;\n    //     buyerListCounter++;     \n    // }\n\n    function transferAmount() notOwner public payable  \n    {\n        require(msgVal > amount, \"error: mismatching amount entered!\");\n        owner.transfer(amount);\n        payable(msg.sender).transfer(msgVal);\n        updateTimestamp();\n        logPayment();\n        paymentHistory[payer]= amount;\n    }\n\n    function logPayment() internal \n    {      \n       emit makePayment(payer, owner, amount, lastUpdated);\n    }\n\n    // Set `lastUpdated` to `now`\n    function updateTimestamp() internal\n    {\n        lastUpdated = block.timestamp;\n    }\n\n    function getcontractBalance() public view returns (uint) \n    {\n        return address(this).balance;\n    }    \n\n    function getPriceAmount()  public view returns(uint)\n    {\n        return amount;\n    }\n\n}",
  "sourcePath": "/home/ayush/Desktop/VSCode/community-transactions/truffle/contracts/Deal.sol",
  "compiler": {
    "name": "solc",
    "version": "0.8.13+commit.abaa5c0e.Emscripten.clang"
  },
  "schemaVersion": "3.4.7",
  "updatedAt": "2022-04-23T23:57:43.818Z",
  "devdoc": {
    "kind": "dev",
    "methods": {},
    "version": 1
  },
  "userdoc": {
    "kind": "user",
    "methods": {},
    "version": 1
  }
}